{
  "contractName": "GetTokenPrice",
  "abi": [
    {
      "inputs": [
        {
          "internalType": "address",
          "name": "_uniswapV2FactoryAddress",
          "type": "address"
        },
        {
          "internalType": "address",
          "name": "_weth",
          "type": "address"
        }
      ],
      "stateMutability": "nonpayable",
      "type": "constructor"
    },
    {
      "inputs": [],
      "name": "WETH",
      "outputs": [
        {
          "internalType": "address",
          "name": "",
          "type": "address"
        }
      ],
      "stateMutability": "view",
      "type": "function",
      "constant": true
    },
    {
      "inputs": [],
      "name": "amountETH",
      "outputs": [
        {
          "internalType": "uint256",
          "name": "",
          "type": "uint256"
        }
      ],
      "stateMutability": "view",
      "type": "function",
      "constant": true
    },
    {
      "inputs": [],
      "name": "uniswapV2FactoryAddress",
      "outputs": [
        {
          "internalType": "address",
          "name": "",
          "type": "address"
        }
      ],
      "stateMutability": "view",
      "type": "function",
      "constant": true
    },
    {
      "stateMutability": "payable",
      "type": "receive",
      "payable": true
    },
    {
      "inputs": [
        {
          "internalType": "address",
          "name": "_token",
          "type": "address"
        },
        {
          "internalType": "uint256",
          "name": "_amount",
          "type": "uint256"
        }
      ],
      "name": "calculateAmountETH",
      "outputs": [
        {
          "internalType": "uint256",
          "name": "",
          "type": "uint256"
        }
      ],
      "stateMutability": "nonpayable",
      "type": "function"
    }
  ],
  "bytecode": "0x608060405234801561001057600080fd5b5060405161081a38038061081a8339818101604052604081101561003357600080fd5b81019080805190602001909291908051906020019092919050505081600260006101000a81548173ffffffffffffffffffffffffffffffffffffffff021916908373ffffffffffffffffffffffffffffffffffffffff16021790555080600160006101000a81548173ffffffffffffffffffffffffffffffffffffffff021916908373ffffffffffffffffffffffffffffffffffffffff1602179055505050610739806100e16000396000f3fe6080604052600436106100435760003560e01c806302efeb321461004f578063ad5c4648146100be578063bb0571dc14610115578063fa85a18e1461016c5761004a565b3661004a57005b600080fd5b34801561005b57600080fd5b506100a86004803603604081101561007257600080fd5b81019080803573ffffffffffffffffffffffffffffffffffffffff16906020019092919080359060200190929190505050610197565b6040518082815260200191505060405180910390f35b3480156100ca57600080fd5b506100d36104fa565b604051808273ffffffffffffffffffffffffffffffffffffffff1673ffffffffffffffffffffffffffffffffffffffff16815260200191505060405180910390f35b34801561012157600080fd5b5061012a610520565b604051808273ffffffffffffffffffffffffffffffffffffffff1673ffffffffffffffffffffffffffffffffffffffff16815260200191505060405180910390f35b34801561017857600080fd5b50610181610546565b6040518082815260200191505060405180910390f35b600080600260009054906101000a900473ffffffffffffffffffffffffffffffffffffffff1673ffffffffffffffffffffffffffffffffffffffff1663e6a4390585600160009054906101000a900473ffffffffffffffffffffffffffffffffffffffff166040518363ffffffff1660e01b8152600401808373ffffffffffffffffffffffffffffffffffffffff1673ffffffffffffffffffffffffffffffffffffffff1681526020018273ffffffffffffffffffffffffffffffffffffffff1673ffffffffffffffffffffffffffffffffffffffff1681526020019250505060206040518083038186803b15801561028f57600080fd5b505afa1580156102a3573d6000803e3d6000fd5b505050506040513d60208110156102b957600080fd5b81019080805190602001909291905050509050600073ffffffffffffffffffffffffffffffffffffffff168173ffffffffffffffffffffffffffffffffffffffff16141561036f576040517f08c379a00000000000000000000000000000000000000000000000000000000081526004018080602001828103825260148152602001807f5061697220646f6573206e6f742065786973742100000000000000000000000081525060200191505060405180910390fd5b6000808273ffffffffffffffffffffffffffffffffffffffff16630902f1ac6040518163ffffffff1660e01b815260040160606040518083038186803b1580156103b857600080fd5b505afa1580156103cc573d6000803e3d6000fd5b505050506040513d60608110156103e257600080fd5b8101908080519060200190929190805190602001909291908051906020019092919050505050915091506000826dffffffffffffffffffffffffffff1690506000826dffffffffffffffffffffffffffff1690506000600160009054906101000a900473ffffffffffffffffffffffffffffffffffffffff1673ffffffffffffffffffffffffffffffffffffffff168973ffffffffffffffffffffffffffffffffffffffff1610156104ba576104b3836104a5848b61054c90919063ffffffff16565b6105d290919063ffffffff16565b90506104e2565b6104df826104d1858b61054c90919063ffffffff16565b6105d290919063ffffffff16565b90505b80600081905550600054965050505050505092915050565b600160009054906101000a900473ffffffffffffffffffffffffffffffffffffffff1681565b600260009054906101000a900473ffffffffffffffffffffffffffffffffffffffff1681565b60005481565b60008083141561055f57600090506105cc565b600082840290508284828161057057fe5b04146105c7576040517f08c379a00000000000000000000000000000000000000000000000000000000081526004018080602001828103825260218152602001806106e36021913960400191505060405180910390fd5b809150505b92915050565b600061061483836040518060400160405280601a81526020017f536166654d6174683a206469766973696f6e206279207a65726f00000000000081525061061c565b905092915050565b600080831182906106c8576040517f08c379a00000000000000000000000000000000000000000000000000000000081526004018080602001828103825283818151815260200191508051906020019080838360005b8381101561068d578082015181840152602081019050610672565b50505050905090810190601f1680156106ba5780820380516001836020036101000a031916815260200191505b509250505060405180910390fd5b5060008385816106d457fe5b04905080915050939250505056fe536166654d6174683a206d756c7469706c69636174696f6e206f766572666c6f77a26469706673582212200d8da49a9835794b6cbc9715c42607fe988b9e69f799e14fe452df7c1588843f64736f6c63430006060033",
  "immutableReferences": {},
  "source": "pragma solidity >=0.6.0;\n\nimport \"@openzeppelin/contracts/math/SafeMath.sol\";\n\n\ninterface IUniswapPair {\n    function getReserves() external view returns (uint112 reserve0, uint112 reserve1, uint32 blockTimestampLast);\n}\n\ninterface IUniswapFactory {\n    function getPair(address tokenA, address tokenB) external view returns (address pair);\n}\n\ncontract GetTokenPrice  {\n    using SafeMath for uint256;\n    uint256 public amountETH;\n    address public WETH;\n    address public uniswapV2FactoryAddress;\n\n    constructor(\n        address _uniswapV2FactoryAddress, address _weth) public {\n        uniswapV2FactoryAddress = _uniswapV2FactoryAddress;\n        WETH = _weth;\n    }\n\n    function calculateAmountETH(address _token, uint256 _amount) public returns (uint256) {\n\n        address pairAddress = IUniswapFactory(uniswapV2FactoryAddress).getPair(_token, WETH);\n        require(pairAddress != address(0), \"Pair does not exist!\");\n        (uint112 _reserve0, uint112 _reserve1,) = IUniswapPair(pairAddress).getReserves();\n\n        uint256 reserve0 = uint256(_reserve0);\n        uint256 reserve1 = uint256(_reserve1);\n\n        uint256 amount;\n        if(_token < WETH) {\n            amount = _amount.mul(reserve1).div(reserve0);\n        } else {\n            amount = _amount.mul(reserve0).div(reserve1);\n        }\n        amountETH = amount;\n        return amountETH;\n    }\n\n    receive() external payable {\n    }\n}\n",
  "sourcePath": "/Users/user/Desktop/DEV/uniswap-v2-totalContract/useOracle/contracts/GetTokenPrice.sol",
  "compiler": {
    "name": "solc",
    "version": "0.6.6+commit.6c089d02.Emscripten.clang"
  },
  "schemaVersion": "3.3.2",
  "updatedAt": "2022-01-25T06:44:51.544Z",
  "networkType": "ethereum",
  "devdoc": {
    "methods": {}
  },
  "userdoc": {
    "methods": {}
  }
}